:020000040800F2
:1000000008090020A90400080905000809050008DE
:10001000090500080905000809050008000000009E
:1000200000000000000000000000000009050008BA
:10003000090500080000000009050008090500087E
:100040000905000809050008090500080905000858
:100050000905000809050008090500080905000848
:100060000905000809050008090500080905000838
:100070000905000809050008090500080905000828
:100080000905000809050008090500080905000818
:1000900001140008B5140008090500080905000846
:1000A00009050008090500080905000809050008F8
:1000B00009050008311200086D1200080905000842
:1000C00009050008090500080905000809050008D8
:1000D00009050008090500080905000809050008C8
:1000E00009050008090500080905000800000000CE
:1000F0000000000000000000000000000000000000
:1001000000000000000000005FF808F180B485B036
:1001100000AF786039600023FB817B681B88FB811E
:100120007B682E4A934213D07B682D4A93420FD0AE
:100130007B68B3F1804F0BD07B682A4A934207D08B
:100140007B68294A934203D07B68284A934208D1AE
:10015000FB8923F07003FB813B685A88FB891343BA
:10016000FB817B68224A93420CD07B68214A9342F0
:1001700008D0FB8923F44073FB813B68DA88FB8954
:100180001343FB817B68FA891A803B689A887B68F5
:100190009A853B681A887B681A857B680F4A934268
:1001A0000FD07B680E4A93420BD07B68124A934271
:1001B00007D07B68114A934203D07B68104A934270
:1001C00004D13B681B7A9AB27B681A867B6801224D
:1001D0009A8200BF1437BD4680BC7047002C014096
:1001E000003401400004004000080040000C0040C2
:1001F0000010004000140040004001400044014055
:100200000048014080B483B000AF78607B684FF64F
:10021000FF729A807B6800221A807B680022DA8055
:100220007B6800225A807B6800221A7200BF0C375C
:10023000BD4680BC704700BF80B483B000AF78601B
:100240000B46FB70FB78002B08D07B681B889BB2A9
:1002500043F001039AB27B681A8007E07B681B8831
:100260009BB223F001039AB27B681A8000BF0C375F
:10027000BD4680BC704700BF80B483B000AF7860DB
:100280000B467B8013467B707B78002B08D07B6805
:100290009B899AB27B8813439AB27B689A8109E062
:1002A0007B689B899AB27B88DB439BB213409AB2EE
:1002B0007B689A8100BF0C37BD4680BC704700BF89
:1002C00080B485B000AF78600B467B800023FB7361
:1002D0000023BB8100237B817B681B8A9AB27B88C9
:1002E0001340BB817B689B899AB27B8813407B81DA
:1002F000BB89002B05D07B89002B02D00123FB7327
:1003000001E00023FB73FB7B18461437BD4680BC1D
:10031000704700BF80B483B000AF78600B467B802D
:100320007B88DB439AB27B681A8200BF0C37BD46DC
:1003300080BC704780B500AF154A154B1B6843F071
:10034000010313601249124B5A68124B13404B6061
:100350000F4A0F4B1B6823F0847323F48033136020
:100360000B4A0B4B1B6823F480231360084A084B8D
:100370005B6823F4FE035360054B4FF41F029A6041
:1003800000F00CF8044B4FF000629A6000BF80BD93
:10039000001002400000FFF800ED00E080B500AF63
:1003A00000F002F800BF80BD80B483B000AF00232E
:1003B0007B6000233B603A4A394B1B6843F480332F
:1003C0001360374B1B6803F400333B607B680133D9
:1003D0007B603B68002B03D17B68B3F5A06FF0D145
:1003E0002F4B1B6803F40033002B02D001233B602A
:1003F00001E000233B603B68012B4BD1294A294B8C
:100400001B6843F010031360264A264B1B6823F039
:1004100003031360234A234B1B6843F0020313605A
:100420001F4A1F4B5B6853601D4A1D4B5B6853603E
:100430001B4A1B4B5B6843F480635360184A184B9C
:100440005B6823F47C135360154A154B5B6843F4D7
:10045000E8135360124A124B1B6843F08073136019
:1004600000BF0F4B1B6803F00073002BF9D00C4A40
:100470000B4B5B6823F003035360094A084B5B682E
:1004800043F00203536000BF054B5B6803F00C03AD
:10049000082BF9D100BF0C37BD4680BC704700BFA8
:1004A000001002400020024080B582B000AF114B26
:1004B0007B60114B3B6007E03B681A1D3A607A682D
:1004C000111D796012681A603B680C4A9342F3D39D
:1004D0000B480C494FF000028842B8BF40F8042B8B
:1004E000FADBFFF727FF00F0FFFC00BF0837BD462F
:1004F00080BD00BF484B00080000002040000020E5
:10050000400000200805002080B400AFFEE700BFD7
:1005100080B582B000AF78607B680E4A93420AD102
:1005200001214FF0007001F0E3F800214FF000705E
:1005300001F0DEF809E001214FF0806001F0D8F809
:1005400000214FF0806001F0D3F800BF0837BD46AE
:1005500080BD00BF0064004080B485B000AF78600B
:1005600039600023FB730023BB607B681B6823F0AA
:1005700002027B681A607B681B6843F001027B689B
:100580001A6002E0BB680133BB607B685B6803F004
:100590000103002B04D1BB684FF6FF729342F1D1E7
:1005A0007B685B6803F00103002B02D10023FB731F
:1005B0009CE03B689B79012B06D17B681B6843F06C
:1005C00080027B681A6005E07B681B6823F080026C
:1005D0007B681A603B68DB79012B06D17B681B685E
:1005E00043F040027B681A6005E07B681B6823F0DB
:1005F00040027B681A603B681B7A012B06D17B683E
:100600001B6843F020027B681A6005E07B681B686A
:1006100023F020027B681A603B685B7A012B06D1CD
:100620007B681B6843F010027B681A6005E07B68FA
:100630001B6823F010027B681A603B689B7A012BD1
:1006400006D17B681B6843F008027B681A6005E0EE
:100650007B681B6823F008027B681A603B68DB7AC2
:10066000012B06D17B681B6843F004027B681A608B
:1006700005E07B681B6823F004027B681A603B6816
:100680009B789A073B68DB781B061A433B681B790B
:100690001B041A433B685B791B051A433B681B88A4
:1006A000013B1A437B68DA617B681B6823F0010217
:1006B0007B681A600023BB6002E0BB680133BB604B
:1006C0007B685B6803F00103002B04D0BB684FF626
:1006D000FF729342F1D17B685B6803F00103002B4A
:1006E00002D00023FB7301E00123FB73FB7B184660
:1006F0001437BD4680BC704780B485B000AF7860C9
:100700000023FB607B689B7A1A4601239340FB60C1
:10071000554A554BD3F8003243F00103C2F800327A
:100720005149514BD3F81C22FB68DB431340C1F8FD
:100730001C327B681B7B002B25D14B494A4BD3F8DD
:100740000C22FB68DB431340C1F80C3246497B683E
:100750009B7A18467B68DB881B047A6852881A43A8
:1007600000F1480341F833203F497B689B7A1846E3
:100770007B689B881B047A6812881A4300F148033F
:10078000DB000B445A607B681B7B012B24D136496C
:10079000354BD3F80C22FB681343C1F80C323249B5
:1007A0007B689B7A18467B681B881B047A68528892
:1007B0001A4300F1480341F833202B497B689B7AA8
:1007C00018467B689B881B047A68D2881A4300F11C
:1007D0004803DB000B445A607B68DB7A002B09D1AD
:1007E0002149214BD3F80422FB68DB431340C1F8B5
:1007F000043207E01C491C4BD3F80422FB68134366
:10080000C1F804327B681B89002B08D11649164BAE
:10081000D3F81422FB68DB431340C1F814327B6821
:100820001B89012B07D110490F4BD3F81422FB6809
:100830001343C1F814327B685B7B012B07D10A4953
:10084000094BD3F81C22FB681343C1F81C32064A3B
:10085000054BD3F8003223F00103C2F8003200BF89
:100860001437BD4680BC70470064004080B483B03C
:1008700000AF78607B6800229A717B680022DA7191
:100880007B6800221A727B6800225A727B68002201
:100890009A727B680022DA727B6800229A707B6809
:1008A0000022DA707B6803221A717B6802225A7177
:1008B0007B6801221A8000BF0C37BD4680BC7047A0
:1008C00080B485B000AFF8600B467A60FB72FB7AAB
:1008D000FA681B331B0113441B68DBB203F00403EB
:1008E000DAB27B681A727B681B7A002B09D1FB7A1B
:1008F000FA681B331B0113441B685A0D7B681A608E
:1009000008E0FB7AFA681B331B0113441B68DA0802
:100910007B685A60FB7AFA681B331B0113441B681F
:10092000DBB203F00203DAB27B685A72FB7AFA6830
:100930001B331B01134404331B68DBB203F00F03AA
:10094000DAB27B689A72FB7AFA681B331B01134494
:1009500004331B681B0ADAB27B68DA74FB7AFA6824
:100960001B01134403F5DC731B68DAB27B68DA728F
:10097000FB7AFA681B01134403F5DC731B681B0A3E
:10098000DAB27B681A73FB7AFA681B01134403F529
:10099000DC731B681B0CDAB27B685A73FB7AFA684B
:1009A0001B01134403F5DC731B681B0EDAB27B6872
:1009B0009A73FB7AFA681B01134403F5DE731B6814
:1009C000DAB27B68DA73FB7AFA681B01134403F529
:1009D000DE731B681B0ADAB27B681A74FB7AFA684A
:1009E0001B01134403F5DE731B681B0CDAB27B6832
:1009F0005A74FB7AFA681B01134403F5DE731B6813
:100A00001B0EDAB27B689A74FB7A002B06D1FB6866
:100A1000DB6843F02002FB68DA6005E0FB681B69D5
:100A200043F02002FB681A6100BF1437BD4680BC4A
:100A3000704700BF80B485B000AFF860B96013465E
:100A4000FB71FB79002B06D0FB685A69BB681A431F
:100A5000FB685A6106E0FB685A69BB68DB431A40D1
:100A6000FB685A6100BF1437BD4680BC704700BFA9
:100A700080B584B000AF786039600023FB737B6879
:100A80005A693B681340002B00F0B2803B68402B52
:100A900062D0402B0FD8042B3AD0042B04D8012B62
:100AA00024D0022B2BD09FE0102B43D0202B4AD0F8
:100AB000082B36D098E0B3F5006F00F08380B3F5D3
:100AC000006F09D8B3F5007F6AD0B3F5806F70D09E
:100AD000B3F5807F5BD087E0B3F5803F45D0B3F5B9
:100AE000003F4BD0B3F5004F75D07DE07B689B682D
:100AF0004349184600F086F80346FB737AE07B68AA
:100B0000DB680321184600F07DF80346FB7371E0B3
:100B10007B68DB680821184600F074F80346FB7315
:100B200068E07B68DB681021184600F06BF803462C
:100B3000FB735FE07B681B690321184600F062F8D5
:100B40000346FB7356E07B681B690821184600F0DA
:100B500059F80346FB734DE07B681B69102118466A
:100B600000F050F80346FB7344E07B685B680821A3
:100B7000184600F047F80346FB733BE07B685B6870
:100B80001021184600F03EF80346FB7332E07B6804
:100B90009B690121184600F035F80346FB7329E0F4
:100BA0007B689B690221184600F02CF80346FB7312
:100BB00020E07B689B690421184600F023F8034677
:100BC000FB7317E07B689B697021184600F01AF8E8
:100BD0000346FB730EE07B685B680421184600F057
:100BE00011F80346FB7305E00023FB7300BF01E02F
:100BF0000023FB73FB7B18461037BD4680BD00BF4A
:100C00000101010080B485B000AF78603960002335
:100C1000FB737A683B681340002B02D00123FB73FF
:100C200001E00023FB73FB7B18461437BD4680BCF4
:100C3000704700BF80B489B000AF7860396000238E
:100C4000FB6100233B610023BB610023FB600023A9
:100C50007B610023BB603B68DB7803F00F03FB6123
:100C60003B68DB7803F01003002B05D03B689B78D2
:100C70001A46FB691343FB613B681B88DBB2002B00
:100C800044D07B681B687B610023BB6138E0012294
:100C9000BB6902FA03F3FB603B681B881A46FB68DA
:100CA00013403B613A69FB689A4226D1BB699B00BD
:100CB000FB600F22FB6802FA03F3BB60BB68DB43F7
:100CC0007A6913407B61FA69FB6802FA03F37A6977
:100CD00013437B613B68DB78282B05D10122BB697C
:100CE0009A407B685A6108E03B68DB78482B04D166
:100CF0000122BB699A407B681A61BB690133BB6101
:100D0000BB69072BC3D97B687A691A603B681B886B
:100D1000FF2B46D97B685B687B610023BB613AE0AF
:100D2000BB690833012202FA03F3FB603B681B88AE
:100D30001A46FB6813403B613A69FB689A4227D127
:100D4000BB699B00FB600F22FB6802FA03F3BB60E8
:100D5000BB68DB437A6913407B61FA69FB6802FA7E
:100D600003F37A6913437B613B68DB78282B05D159
:100D7000BB69083301229A407B685A613B68DB7883
:100D8000482B05D1BB69083301229A407B681A6160
:100D9000BB690133BB61BB69072BC1D97B687A6929
:100DA0005A6000BF2437BD4680BC704780B483B012
:100DB00000AF78600B467B807A887B681A6100BF41
:100DC0000C37BD4680BC704780B483B000AF7860FC
:100DD0000B467B807A887B685A6100BF0C37BD4622
:100DE00080BC704780B487B000AF78600B46FB7062
:100DF00000233B610023FB6000237B610023BB6079
:100E00007B68002B03DA2E4BDB697B6102E02C4B05
:100E10005B687B617B681B0C03F00F03BB607B6826
:100E20009BB23B617B6803F44013B3F5401F0AD1CA
:100E30007B6923F070637B61214A214B5B6823F05F
:100E40007063536021E07B6803F48013002B0ED0A5
:100E50000322BB6802FA03F3FB60FB68DB437A6999
:100E600013407B617B6943F070637B610DE07B68BD
:100E70005B0D1B013A6902FA03F3DB437A69134005
:100E80007B617B6943F070637B61FB78002B08D04A
:100E90007B685B0D1B013A6902FA03F37A6913431D
:100EA0007B617B68002B03DA054A7B69D36102E032
:100EB000034A7B69536000BF1C37BD4680BC704746
:100EC0000000014080B483B000AF00237B6002E0EB
:100ED0007B6801337B607B68B3F5000FF8D100BFFE
:100EE0000C37BD4680BC704780B590B000AF012183
:100EF000102000F0C1FB4FF40053BB84102387F88F
:100F00002730032387F8263007F124031946844845
:100F1000FFF790FE0121012000F0AEFB0121814886
:100F2000FFF760FF0123FB630123BB6300237B63A7
:100F3000FFF700FA00F0E0FD00F014F900F0B4F95A
:100F400021210C2000F05AFF01227749774800F058
:100F5000EBFF3521282000F051FF0122744975482C
:100F600000F0E2FF00F0A0FE4FF400516C48FFF7E4
:100F70002BFFFFF7A7FF4FF400516948FFF716FF5B
:100F80006D4B1B68002B07D04FF400516448FFF7EE
:100F90001BFF0123FB6306E04FF400516048FFF79D
:100FA00005FF0223FB63644B1B68002B07D07B6BA0
:100FB000B3F5FA5F03DA7B6B01337B6303E0012354
:100FC000BB6300237B635D4B1A685D4B1B689A42D1
:100FD00026D000233B631CE05A4A3B6B12F83330A7
:100FE000002B13D0574A3B6BDB0013445B6842F283
:100FF0000F7293420ADC534A3B6BDB0013445B687D
:101000005A1C50493B6BDB000B445A603B6B01336D
:101010003B633B6B092BDFDD484B1B68484A136081
:10102000494B1A68494B1B689A4226D00023FB6241
:101030001CE0474AFB6A12F83330002B13D0444AB5
:10104000FB6ADB0013445B6842F20F7293420ADCD6
:101050003F4AFB6ADB0013445B685A1C3C49FB6A4D
:10106000DB000B445A60FB6A0133FB62FB6A092B0D
:10107000DFDD354B1B68354A13602823BB62FB6BF1
:10108000012B02D0022B29D048E0BB6B002B42D0B1
:10109000002000F03DFE2421002000F0AFFE0122E0
:1010A0002C492D4800F040FF2C4B1B681A46BB6AA8
:1010B000D31A18463B1D0A22194601F085F825214E
:1010C000462000F09BFE3B1D01222249184600F0FD
:1010D0002BFF00F0E9FD0023BB631CE0BB6B002B82
:1010E0001BD0002000F014FE21210C2000F086FE11
:1010F00001220D490D4800F017FF3521282000F08E
:101100007DFE01220A49164800F00EFF00F0CCFDDA
:101110000023BB6301E000BF32E700BF30E700BF40
:10112000001001400002300030000020E8220008DA
:1011300028000020F4220008F00000209000002089
:101140009400002040000020E8000020EC00002077
:101150009800002038000020FC220008F400002045
:101160000423000880B586B000AF0121022000F002
:10117000A1FA0121042000F09DFA07F10C031846A2
:10118000FFF740F8264B1B68264AA2FB03235B0BA4
:101190009BB2013B9BB2BB810A233B820023FB81B4
:1011A00007F10C0319462048FEF7B0FF4FF47A739D
:1011B0003B820023FB8107F10C0319461B48FEF715
:1011C000A5FF012201211848FFF756F8012201214D
:1011D0001648FFF751F801211348FFF72DF80121B8
:1011E0001248FFF729F81D233B7201237B7201236C
:1011F000BB720123FB7207F10803184600F01AFCCA
:101200001E233B7101237B710023BB710123FB7102
:101210003B1D184600F00EFC00BF1837BD4680BDD0
:10122000000000205917B7D100040040000800401A
:1012300080B500AF01210B48FFF742F80346002BB1
:101240000ED001210748FFF765F8074B1B68002BFC
:1012500003D1054B01221A6002E0034B00221A6001
:1012600000BF80BD000400409000002080B500AFAA
:1012700001210B48FFF724F80346002B0ED0012173
:101280000748FFF747F8074B1B68002B03D1054BB6
:1012900001221A6002E0034B00221A6000BF80BDE9
:1012A00000080040E800002080B58AB000AF0121AE
:1012B000012000F0E1F90121042000F0DDF9012115
:1012C0004FF0007000F0F6F94FF40063BB84482340
:1012D00087F82730032387F8263007F124031946BF
:1012E0004548FFF7A7FC4FF48053BB84182387F8C9
:1012F0002730032387F8263007F1240319463E4898
:10130000FFF798FC3D48FFF703F907F1180318466B
:10131000FFF7ACFA0023BB770023FB77002387F8A5
:101320002030012387F82130002387F82230002362
:1013300087F823300023BB760023FB7602233B771C
:1013400003237B7709233B8307F1180319462B48B6
:10135000FFF702F90023BB740023FB7401233B75E4
:1013600050235B019BB23B8100237B8150235B01B7
:101370009BB2BB810023FB8100233B8201237B7551
:1013800007F108031846FFF7B7F90123BB744FF4C0
:1013900084635B019BB23B814FF484635B019BB22E
:1013A000BB8107F108031846FFF7A6F914233B7128
:1013B00000237B710023BB710123FB713B1D184689
:1013C00000F038FB012202210C48FFF733FB152304
:1013D0003B7100237B710023BB710123FB713B1D1B
:1013E000184600F027FB012210210448FFF722FBDA
:1013F00000BF2837BD4680BD0008014000640040A2
:1014000080B586B000AF0023BB7200237B60002351
:10141000FB7400233B7200237B7200233B6000239C
:10142000FB7200233B7300237B730023BB730023F9
:10143000FB7300233B7400237B740023BB740221E5
:101440001848FFF715FB0346002B26D03B461A46EB
:1014500000211448FFF734FA3B7A002B1DD13B687A
:101460005022934209D1FB7A022B03D10E4B012269
:101470001A6002E00C4B00221A603B684FF4846251
:10148000934207D1FB7A1A46084B1A60084B012297
:101490001A6002E0064B00221A6000BF1837BD46F2
:1014A00080BD00BF00640040F0000020F400002078
:1014B000F800002080B586B000AF0023BB73002386
:1014C000BB600023FB7500233B7300237B73002369
:1014D0007B600023FB7300233B7400237B74002399
:1014E000BB740023FB7400233B7500237B75002332
:1014F000BB7510210748FFF7BBFA0346002B05D048
:101500003B1D1A4601210348FFF7DAF900BF1837DF
:10151000BD4680BD0064004080B487B000AF7860F5
:1015200000237B6100233B610023FB600023BB6041
:101530004C4B5B6803F00C037B617B69042B07D089
:10154000082B09D0002B33D17B68474A1A6033E05F
:101550007B68454A1A602FE0424B5B6803F47013C6
:101560003B61404B5B6803F48033FB603B699B0C41
:1015700002333B61FB68002B06D13B693B4A02FB0F
:1015800003F27B681A6017E0364B5B6803F40033A4
:10159000002B06D03B69354A02FB03F27B681A60D8
:1015A0000AE03B69304A02FB03F27B681A6003E001
:1015B0007B682D4A1A6000BF2A4B5B6803F0F0037A
:1015C0007B617B691B097B61294A7B6913441B781A
:1015D000DBB2BB607B681A68BB68DA407B685A6024
:1015E000204B5B6803F4E0637B617B691B0A7B61D2
:1015F0001F4A7B6913441B78DBB2BB607B685A6867
:10160000BB68DA407B689A60164B5B6803F46053F2
:101610007B617B69DB0A7B61154A7B6913441B781C
:10162000DBB2BB607B685A68BB68DA407B68DA6013
:101630000C4B5B6803F440437B617B699B0B7B61D4
:101640000C4A7B6913441B78DBB2BB607B68DA68A9
:10165000BB68B2FBF3F27B681A6100BF1C37BD4662
:1016600080BC70470010024000127A0000093D0063
:10167000140000202400002080B483B000AF786004
:101680000B46FB70FB78002B06D00949084B9A6982
:101690007B6813438B6106E00549054B9A697B68BB
:1016A000DB4313408B6100BF0C37BD4680BC7047E5
:1016B0000010024080B483B000AF78600B46FB702E
:1016C000FB78002B06D00949084BDA697B68134385
:1016D000CB6106E00549054BDA697B68DB431340C3
:1016E000CB6100BF0C37BD4680BC70470010024084
:1016F00080B483B000AF78600B46FB70FB78002BA2
:1017000006D00949084B1A697B6813430B6106E050
:101710000549054B1A697B68DB4313400B6100BF29
:101720000C37BD4680BC70470010024080B586B0C3
:1017300000AF01214FF40010FFF7BCFF012108208A
:10174000FFF79AFF134B7B6000233B814BF6FF733F
:101750007B811523BB810023FB814FF480433B82B7
:101760003B1D19460C4800F005FCC023BB821C231E
:10177000FB750323BB7507F1140319460748FFF7F0
:1017800059FA0121044800F0B7FC00BF1837BD46E4
:1017900080BD00BF801A060000540040000C0140CC
:1017A00080B586B000AFF8607B600B46FB721346D5
:1017B000BB72F97A00230022F86800F01FF8BB7AA8
:1017C0001946F86800F09EF80023FB750AE0FB7DDF
:1017D0007A6813441B781946F86800F093F8FB7D8B
:1017E0000133FB75FB7D9BB23A8C9A42EFD8F868C7
:1017F00000F0D2F800BF1837BD4680BD80B582B07A
:1018000000AF7860084611461A460346FB700B4647
:10181000BB7013467B707B681B889BB243F480735C
:101820009AB27B681A80354B44F620621A600AE04F
:10183000324B1B68013B314A1360304B1B68002B55
:1018400001D1012356E07B689B8A9BB203F0010320
:10185000002BEDD07B78002B07D07B681B889BB2D8
:1018600043F480639AB27B681A80BB78002B1DD149
:10187000FB789BB223F001039AB27B681A821F4B5C
:1018800044F620621A600AE01C4B1B68013B1B4AAD
:1018900013601A4B1B68002B01D101232AE07B68DF
:1018A0009B8A9BB203F00203002BEDD0BB78012B87
:1018B0001DD1FB7843F00103DBB29AB27B681A8238
:1018C0000E4B44F620621A600AE00C4B1B68013B89
:1018D0000A4A1360094B1B68002B01D1012309E060
:1018E0000749786800F028FC0346002BEDD07B68A0
:1018F0001B8B002318460837BD4680BDFC00002026
:101900000200030080B483B000AF78600B46FB7028
:101910000E4B44F620621A6004E00C4B1B68013B3E
:101920000A4A13607B689B8A9BB203F08003002BFA
:1019300003D1064B1B68002BEFD1FB789AB27B6872
:101940001A8200BF0C37BD4680BC7047FC000020E7
:1019500080B582B000AF7860084611461A4603464B
:10196000FB700B46BB7013467B70F9780023002296
:101970007868FFF743FFBB7819467868FFF7C2FF26
:101980007B7819467868FFF7BDFF786800F004F8A7
:1019900000BF0837BD4680BD80B483B000AF78601B
:1019A000154B44F620621A600AE0134B1B68013B9A
:1019B000114A1360104B1B68002B01D1012316E064
:1019C0007B689B8A9BB203F08003002BEDD07B6881
:1019D0009B8A9BB203F00403002BE6D07B681B8834
:1019E0009BB243F400739AB27B681A8000231846B6
:1019F0000C37BD4680BC7047FC00002080B584B029
:101A000000AF78600B46FB700023FB73F97801236D
:101A100000227868FFF7F2FE0346002B01D1012374
:101A2000FB737868FFF7B8FFFB7B18461037BD469D
:101A300080BD00BF80B487B000AF786000237B61B9
:101A400000233B610F23FB607B68DB78002B3AD0DF
:101A5000274BDB68DB4303F4E0631B0A7B617B6994
:101A6000C3F104033B61FA687B6922FA03F3FB606C
:101A70007B685B781A463B6902FA03F37B617B68FB
:101A80009B781A46FB6813407A6913437B617B6934
:101A90001B017B61174A7B681B787969C9B21344C3
:101AA0000A4683F80023134A7B681B785B09DBB284
:101AB00018467B681B7803F01F03012101FA03F32A
:101AC00042F820300FE00B497B681B785B09DBB2E2
:101AD00018467B681B7803F01F0301229A4000F12F
:101AE000200341F8232000BF1C37BD4680BC70474F
:101AF00000ED00E000E100E080B582B000AFFFF74C
:101B000015FE78216648FFF779FF0346002B01D1C7
:101B10000023C0E040F6C4137B6002E07B68013B19
:101B20007B607B68002BF9D1AE23002278215C48D2
:101B3000FFF70EFF2023002278215948FFF708FF06
:101B40001023002278215648FFF702FFB02300221D
:101B500078215348FFF7FCFEC82300227821504823
:101B6000FFF7F6FE0023002278214D48FFF7F0FE34
:101B70001023002278214A48FFF7EAFE4023002282
:101B800078214748FFF7E4FE81230022782144486A
:101B9000FFF7DEFEFF23002278214148FFF7D8FE41
:101BA000A123002278213E48FFF7D2FEA62300227F
:101BB00078213B48FFF7CCFEA82300227821384843
:101BC000FFF7C6FE3F23002278213548FFF7C0FE0D
:101BD000A423002278213248FFF7BAFED323002243
:101BE00078212F48FFF7B4FE0023002278212C48EB
:101BF000FFF7AEFED523002278212948FFF7A8FE83
:101C0000F023002278212648FFF7A2FED9230022E4
:101C100078212348FFF79CFE2223002278212048C8
:101C2000FFF796FEDA23002278211D48FFF790FE89
:101C30000223002278211A48FFF78AFEDB230022C4
:101C400078211748FFF784FE2023002278211448CA
:101C5000FFF77EFE8D23002278211148FFF778FEE2
:101C60001423002278210E48FFF772FEAF230022D2
:101C700078210B48FFF76CFE002000F049F800F0D7
:101C800013F8084B00221A80064B00225A80054B9D
:101C900001225A71012318460837BD4680BD00BF96
:101CA000005400400005002080B584B002AF00233E
:101CB000FB7122E0FB79503BDBB200227821124815
:101CC000FFF746FE0023002278210F48FFF740FE71
:101CD0001023002278210C48FFF73AFEFB79DB0144
:101CE0000A4A1A448023009313464022782106486A
:101CF000FFF756FDFB790133FB71FB79072BD9D92F
:101D000000BF0837BD4680BD0054004000010020E0
:101D100080B582B000AF0346FB71FB79002B01D187
:101D2000002300E0FF234FF480621946034800F0CF
:101D30004DFA00BF0837BD4680BD00BF000100203E
:101D400080B483B000AF0346FB800B46BB801346D4
:101D5000FB70FB887F2B48D8BB883F2B45D8254B91
:101D60001B79002B06D0FB78002B0CBF012300232E
:101D7000DBB2FB70FB78012B1AD1FA88BB88DB0839
:101D800098B20346DB011344F9880246D2010A44A3
:101D900019498A5C51B2BA8802F00702012000FAA0
:101DA00002F252B20A4352B2D1B2134AD1541DE0E8
:101DB000FA88BB88DB0898B20346DB011344F98834
:101DC0000246D2010A440C498A5C51B2BA8802F038
:101DD0000702012000FA02F252B2D24352B20A4084
:101DE00052B2D1B2044AD15400E000BF0C37BD4614
:101DF00080BC7047000500200001002080B483B043
:101E000000AF03460A46FB801346BB80054AFB88A9
:101E10001380044ABB88538000BF0C37BD4680BC8A
:101E2000704700BF0005002080B586B000AF0346B4
:101E30003960FB711346BB713A4B1B881A463B68ED
:101E40001B7813447F2B07DC364B5B881A463B68B4
:101E50005B7813443F2B01DD00235EE000237B61B0
:101E60004BE03B685A68FB79203B3968497801FBB5
:101E700003F319467B690B445B0013441B88FB602A
:101E800000233B6130E0FA683B6902FA03F303F494
:101E90000043002B10D0234B1A883B699BB213449C
:101EA00098B2204B5A887B699BB213449BB2BA7993
:101EB0001946FFF745FF14E01A4B1A883B699BB29D
:101EC000134498B2174B5A887B699BB2134499B25A
:101ED000BB79002B0CBF01230023DBB21A46FFF7AE
:101EE0002FFF3B6901333B613B681B781A463B6916
:101EF0009A42C8D87B6901337B613B685B781A469C
:101F00007B699A42ADD8074B1A883B681B789BB215
:101F100013449AB2034B1A80FB7918461837BD4612
:101F200080BD00BF0005002080B584B000AFF86020
:101F3000B9601346FB7112E0FB681B78FA79B96847
:101F40001846FFF771FF03461A46FB681B789A4252
:101F500002D0FB681B7808E0FB680133FB60FB687C
:101F60001B78002BE8D1FB681B7818461037BD465C
:101F700080BD00BF80B58AB000AF786039600023B3
:101F8000FB8400237B840423BB84574BFB617B6869
:101F90009B88FB84FB8C23F03F03FB8407F1080341
:101FA0001846FFF7B9FA3B69FB61FB694F4AA2FB90
:101FB00003239B0C7B84FA8C7B8C1343FB847B6810
:101FC000FA8C9A807B681B889BB223F001039AB23B
:101FD0007B681A800023FB843B681B68444A934259
:101FE00015D83B681B685B00FA69B2FBF3F3BB844E
:101FF000BB8C032B01D80423BB84FA8CBB8C13430A
:10200000FB847B8C01339AB27B681A8440E03B6886
:10201000DB884BF6FF72934209D13B681A6813467E
:102020005B001344FA69B2FBF3F3BB840EE03B6838
:102030001A6813469B0013449A001344FA69B2FBD2
:10204000F3F3BB84BB8C43F48043BB84BB8CC3F3EE
:102050000B03002B03D1BB8C43F00103BB84BA8C70
:10206000FB8C13439BB26FEA43436FEA5343FB84F9
:102070007B8C4FF4967202FB03F31E4A82FB031221
:102080009211DB17D31A9BB201339AB27B681A8480
:102090007B68FA8C9A837B681B889BB243F00103B0
:1020A0009AB27B681A807B681B88FB84FB8C23F4C4
:1020B000816323F00203FB843B689A883B685B8959
:1020C00013439AB2FB8C1343FB847B68FA8C1A800F
:1020D0003B689A893B681B8913439AB27B681A81D3
:1020E00000BF2837BD4680BD00127A0083DE1B4347
:1020F000A0860100D34D621080B483B000AF786039
:102100000B46FB70FB78002B08D07B681B889BB2CA
:1021100043F001039AB27B681A8007E07B681B8852
:102120009BB223F001039AB27B681A8000BF0C3780
:10213000BD4680BC704700BF80B487B000AF7860F8
:10214000396000233B610023FB600023BB60002358
:10215000FB757B689B8A9BB2FB607B681B8B9BB289
:10216000BB60BB681B04BB60FA68BB68134323F009
:102170007F433B613A693B681A403B689A4202D10F
:102180000123FB7501E00023FB75FB7D18461C371E
:10219000BD4680BC704700BF931E222B10D80A2A70
:1021A00010B506D000230C46194400F05DF8204617
:1021B00010BD0028F6DA2D230B7040420123F2E710
:1021C00000200870704700BFFFF7E6BF70B48407B7
:1021D00046D0541E002A41D0CDB2034602E0621E12
:1021E000E4B3144603F8015B9A07F8D1032C2ED907
:1021F000CDB245EA05250F2C45EA054519D92646F5
:1022000003F11002103E0F2E42F8105C42F80C5CF5
:1022100042F8085C42F8045C02F11002F2D8A4F122
:10222000100222F00F0204F00F041032032C1344AA
:102230000DD91E462246043A032A46F8045BFAD812
:10224000221F22F003020432134404F003042CB1D1
:10225000C9B21C4403F8011BA342FBD170BC7047F8
:1022600014460346C2E700BFF0B58BB06F46154673
:10227000DFF870E004460E46BEE80F000FC7BEE868
:102280000F000FC79EE80300AB1E47F8040B222B7C
:10229000397022D8711E0846002300E01346B4FBB3
:1022A000F5F205FB12440AAF3C4414F8287C1446AE
:1022B00000F8017F5A1C002CF0D1B454F2184BB135
:1022C000013411F8015F1778181B84420F7002F86F
:1022D0000159F5DB30460BB0F0BD002030700BB07B
:1022E000F0BD00BF204B00084D415A4441204358E7
:1022F0002D3500004C4F4144494E47004543543A68
:102300002000000044494553454C000000000000F7
:1023100000000000000000000000000000000000BD
:10232000001000100010001000100010000000103D
:102330000000000000280028002800000000000025
:10234000000000000000000000240024007C0024A5
:102350000048007C0048004800000000003800549D
:1023600000500038001400540054003800100000E1
:1023700000200054005800300028005400140008C9
:102380000000000000100028002800100034004861
:102390000048003400000000001000100010000091
:1023A0000000000000000000000000000008001015
:1023B0000020002000200020002000200010000845
:1023C00000200010000800080008000800080008AD
:1023D000001000200010003800100028000000004D
:1023E00000000000000000000000000000100010CD
:1023F000007C001000100000000000000000000041
:10240000000000000000000000000010001000109C
:102410000000000000000000000000380000000084
:1024200000000000000000000000000000000000AC
:10243000000000100000000000080008001000105C
:1024400000100010002000200000000000380044B0
:1024500000440054004400440044003800000000E0
:10246000001000300050001000100010001000108C
:102470000000000000380044004400040008001080
:102480000020007C00000000003800440004001818
:102490000004000400440038000000000008001898
:1024A000002800280048007C000800080000000008
:1024B000007C004000400078000400040044003824
:1024C0000000000000380044004000780044004450
:1024D0000044003800000000007C000400080010E8
:1024E0000010002000200020000000000038004400
:1024F000004400380044004400440038000000005C
:102500000038004400440044003C0004004400380B
:1025100000000000000000000010000000000000AB
:10252000000000100000000000000000000000108B
:10253000000000000000001000100010000000006B
:10254000000C003000400030000C000000000000D3
:10255000000000000000007C0000007C0000000083
:1025600000000000000000000060001800040018D7
:102570000060000000000000003800440004000873
:10258000001000100000001000000000003800449F
:10259000004C0054005C0040004000380000000087
:1025A00000100028002800280028007C0044004477
:1025B000000000000078004400440078004400441B
:1025C0000044007800000000003800440040004053
:1025D0000040004000440038000000000070004847
:1025E0000044004400440044004800700000000023
:1025F000007C00400040007C004000400040007C27
:1026000000000000007C00400040007800400040D6
:10261000004000400000000000380044004000403E
:10262000005C004400440038000000000044004406
:102630000044007C004400440044004400000000CA
:1026400000380010001000100010001000100038BA
:102650000000000000040004000400040004000462
:1026600000440038000000000044004800500060B2
:1026700000500048004800440000000000400040B6
:1026800000400040004000400040007C000000008E
:102690000044006C006C00540044004400440044BA
:1026A0000000000000440064006400540054004C2A
:1026B000004C004400000000003800440044004486
:1026C000004400440044003800000000007800444A
:1026D000004400440078004000400040000000003A
:1026E00000380044004400440044004400540038D2
:1026F00000040000007800440044004400780048D2
:102700000048004400000000003800440040003051
:10271000000800040044003800000000007C0010A5
:102720000010001000100010001000100000000049
:102730000044004400440044004400440044003885
:102740000000000000440044004400280028002845
:102750000010001000000000004400440054005429
:102760000054006C002800280000000000440028ED
:10277000002800100010002800280044000000007D
:102780000044004400280028001000100010001031
:1027900000000000007C0004000800100010002071
:1027A0000040007C00000000001800100010001025
:1027B0000010001000100010001000180020002071
:1027C00000100010001000100008000800000000B9
:1027D0000030001000100010001000100010001059
:1027E0000010003000100028002800440000000005
:1027F00000000000000000000000000000000000D9
:102800000000000000000000000000FE002000109A
:1028100000000000000000000000000000000000B8
:102820000000000000380044003C0044004C00342C
:1028300000000000004000400058006400440044D4
:102840000064005800000000000000000038004450
:102850000040004000440038000000000004000474
:102860000034004C00440044004C003400000000E0
:102870000000000000380044007C004000440038A4
:1028800000000000000C0010007C00100010001080
:102890000010001000000000000000000034004C98
:1028A00000440044004C0034000400780040004024
:1028B000005800640044004400440044000000004C
:1028C0000010000000700010001000100010001038
:1028D0000000000000100000007000100010001048
:1028E00000100010001000E00040004000480050C0
:1028F000006000500048004400000000007000101C
:102900000010001000100010001000100000000067
:10291000000000000078005400540054005400549B
:102920000000000000000000005800640044004463
:102930000044004400000000000000000038004493
:102940000044004400440038000000000000000083
:1029500000580064004400440064005800400040F7
:10296000000000000034004C00440044004C0034DF
:102970000004000400000000005800640040004013
:10298000004000400000000000000000003800444B
:102990000030000800440038000000000020002043
:1029A0000078002000200020002000180000000017
:1029B000000000000044004400440044004C003487
:1029C000000000000000000000440044002800282F
:1029D0000028001000000000000000000054005417
:1029E0000054006C002800280000000000000000D7
:1029F00000440028001000100028004400000000DF
:102A000000000000004400440028002800100010CE
:102A10000010006000000000007C00080010002092
:102A20000040007C000000000018001000100010A2
:102A300000200020001000100010001800100010EE
:102A40000010001000100010001000100010001006
:102A500000300010001000100008000800100010E6
:102A6000001000300000000000000074004C000066
:102A70000000000000000000000000000000000056
:102A80000000000000000000000000000000000046
:102A90000000000000000000000000000000000C2A
:102AA000000C000C000C000C000C000C000C000CC6
:102AB000000C000C0000000C000C000000000000E6
:102AC0000000001B001B001B001B001B000000007F
:102AD00000000000000000000000000000000000F6
:102AE0000000000000008019801980198019C07F43
:102AF000C07F80190033C07FC07F003300330033B4
:102B000000330000000000000000001E003F807540
:102B100080650074003C001E0007800580658065AC
:102B20008075003F001E00040004000000000070DB
:102B300000D840D8C0D880D900730006000C801B94
:102B4000C036C066C046C00680030000000000001A
:102B50000000001E003F003300330033001E000C55
:102B6000C03CC066806380618063C03E801C000002
:102B7000000000000000000C000C000C000C000C19
:102B80000000000000000000000000000000000045
:102B900000000000000000008000000100030006AB
:102BA00000060004000C000C000C000C000C000CD3
:102BB0000004000600060003000180000020001051
:102BC0000018000C000C00040006000600060006B9
:102BD000000600060004000C000C00180010002085
:102BE0000000000C002D003F001E0033000000001C
:102BF00000000000000000000000000000000000D5
:102C000000000000000000000000000C000C000CA0
:102C1000000CC0FFC0FF000C000C000C000C0000FA
:102C200000000000000000000000000000000000A4
:102C30000000000000000000000000000000000094
:102C40000000000C000C000400040008000000005C
:102C50000000000000000000000000000000001E56
:102C6000001E000000000000000000000000000046
:102C70000000000000000000000000000000000054
:102C800000000000000000000000000C000C00002C
:102C9000000000000000000300030003000600061F
:102CA00000060006000C000C000C000C00180018B8
:102CB00000180000000000000000001E003F00336C
:102CC000806180618061806D806D806180618061E4
:102CD0000033003F001E000000000000000000065E
:102CE000000E001E00360026000600060006000644
:102CF00000060006000600060006000000000000B6
:102D00000000001E003F807380618061800100032D
:102D10000006000C001800300060807F807F0000FB
:102D2000000000000000001C003E00630063000380
:102D3000000E000E00038001800180618073003F5F
:102D4000001E00000000000000000006000E000E43
:102D5000001E001E0016003600360066807F807F51
:102D60000006000600060000000000000000007FD2
:102D7000007F006000600060006E007F8063800163
:102D8000800180618073003F001E00000000000091
:102D90000000001E003F803380610060006E007FF5
:102DA00080738061806180618033003F001E00007D
:102DB000000000000000807F807F8001000300038E
:102DC00000060006000C000C000C0008001800189B
:102DD00000180000000000000000001E003F80639B
:102DE000806180610021001E003F80618061806100
:102DF0008061003F001E0000000000000000001E77
:102E0000003F00738061806180618073803F801D1E
:102E1000800180610073003F001E00000000000080
:102E200000000000000000000000000C000C00008A
:102E300000000000000000000000000C000C00007A
:102E40000000000000000000000000000000000082
:102E5000000C000C00000000000000000000000C4E
:102E6000000C000400040008000000000000000046
:102E700080008003000E003800600038000E8003E0
:102E800080000000000000000000000000000000C2
:102E9000000000000000807F807F00000000807F35
:102EA000807F000000000000000000000000000023
:102EB000000000000000000000400070001C00073F
:102EC00080010007001C00700040000000000000AE
:102ED000000000000000001F803FC071C060C00003
:102EE000C00180030007000E000C000C0000000C65
:102EF000000C0000000000000000001E003F8031B8
:102F000080718063806F806D806D806F80670060EE
:102F10000032003E001C0000000000000000000E17
:102F2000000E001B001B001B001B80318031803F06
:102F3000803F8031C060C060C060000000000000C1
:102F40000000007C007E0063006300630063007E7D
:102F5000007E0063806180618063007F007E0000EE
:102F6000000000000000001E003F80318061006012
:102F70000060006000600060006080618031003FA0
:102F8000001E0000000000000000007C007F0063C5
:102F900080638061806180618061806180610063A5
:102FA0000063007E007C0000000000000000807FC5
:102FB000807F0060006000600060007F007F006034
:102FC000006000600060807F807F000000000000E3
:102FD0000000807F807F0060006000600060007FF4
:102FE000007F006000600060006000600060000022
:102FF000000000000000001E003F80318061006082
:103000000060006080638063806180618031803F08
:10301000001E0000000000000000806180618061EF
:10302000806180618061807F807F8061806180615C
:103030008061806180610000000000000000003FAE
:10304000003F000C000C000C000C000C000C000CED
:10305000000C000C000C003F003F000000000000CE
:1030600000008001800180018001800180018001D9
:1030700080018001806180618073003F001E00003C
:10308000000000000000C060806100630066006610
:10309000006C0078007C00660066006380618061DF
:1030A000C0600000000000000000006000600060E0
:1030B0000060006000600060006000600060006010
:1030C0000060807F807F0000000000000000C07171
:1030D000C071C07BC07AC06AC06AC06EC064C06084
:1030E000C060C060C060C060C06000000000000040
:1030F000000080718071807980798079806D806D29
:10310000806D806580678067806780638063000072
:10311000000000000000001E003F0033806180615D
:103120008061806180618061806180610033003FE7
:10313000001E0000000000000000007E007F806391
:103140008061806180618063007F007E006000603C
:103150000060006000600000000000000000001E31
:10316000003F0033806180618061806180618061A7
:10317000806580670033803F401E00000000000033
:103180000000007E007F8063806180618063007F3B
:10319000007E00660063006380618061C0600000A3
:1031A000000000000000000E001F80318031003060
:1031B0000038001E00078003806180618031003F7D
:1031C000001E0000000000000000C0FFC0FF000C57
:1031D000000C000C000C000C000C000C000C000C8F
:1031E000000C000C000C00000000000000008061DA
:1031F00080618061806180618061806180618061C7
:10320000806180618073003F001E000000000000AC
:103210000000C060C060C060803180318031001B20
:10322000001B001B001B000E000E000E000400001F
:10323000000000000000C0C0C0C0C0C0C0C0C0C00E
:10324000C0CC804C804C805E805280528073806104
:1032500080610000000000000000C0C0806080614C
:103260000033003B001E000C000C001E001F003B42
:1032700080718061C0C00000000000000000C0C07C
:103280008061806100330033001E001E000C000CC2
:10329000000C000C000C000C000C000000000000F2
:1032A0000000803F803F8001000300030006000C07
:1032B000000C0018001800300060807F807F000044
:1032C00000000000000F000F000C000C000C000CB0
:1032D000000C000C000C000C000C000C000C000C8E
:1032E000000C000C000F000F000000180018001860
:1032F000000C000C000C000C000600060006000686
:10330000000300030003000000000000001E001E78
:10331000000600060006000600060006000600067D
:10332000000600060006000600060006001E001E3D
:103330000000000C000C001E0012003300338061FE
:10334000806100000000000000000000000000009C
:10335000000000000000000000000000000000006D
:10336000000000000000000000000000000000005D
:1033700000000000E0FF0000000000380018000C12
:10338000000000000000000000000000000000003D
:10339000000000000000000000000000000000002D
:1033A000000000000000001F803F80618001801F3E
:1033B000803F80618063807FC03800000000000093
:1033C00000000060006000600060006E007F80739D
:1033D00080618061806180618073007F006E000089
:1033E0000000000000000000000000000000001EBF
:1033F000003F807380610060006080618073003FE7
:10340000001E00000000000000008001800180011B
:103410008001801D803F8073806180618061806158
:103420008073803F801D000000000000000000004D
:10343000000000000000001E003F00738061807FDC
:10344000807F00608071003F001E000000000000CF
:103450000000C007C00F000C000C807F807F000CB4
:10346000000C000C000C000C000C000C000C000008
:10347000000000000000000000000000801D803FF0
:10348000807380618061806180618073803F801D76
:1034900080018063007F003E0000006000600060EB
:1034A0000060006F807F80718061806180618061D9
:1034B0008061806180610000000000000000000663
:1034C000000600000000003E003E00060006000668
:1034D00000060006000600060006000000000000CE
:1034E0000006000600000000003E003E0006000648
:1034F000000600060006000600060006000600465C
:10350000007E003C000000600060006000608061A0
:1035100000630066006C007C0076006300638061DD
:10352000C0600000000000000000003E003E0006F9
:10353000000600060006000600060006000600065B
:103540000006000600060000000000000000000069
:1035500000000000000080DDC0FFC0CEC0CCC0CCA9
:10356000C0CCC0CCC0CCC0CCC0CC0000000000009F
:1035700000000000000000000000006F807F8071EC
:103580008061806180618061806180618061000014
:103590000000000000000000000000000000001E0D
:1035A000003F807380618061806180618073003F33
:1035B000001E0000000000000000000000000000ED
:1035C000006E007F807380618061806180618073A4
:1035D000007F006E0060006000600060000000007E
:1035E00000000000801D803F8073806180618061E9
:1035F00080618073803F801D800180018001800197
:10360000000000000000000000000067803F00395B
:10361000003000300030003000300030003000005A
:103620000000000000000000000000000000001E7C
:10363000803F80610060007F803F80018061007F6B
:10364000001E00000000000000000000000800183C
:103650000018007F007F00180018001800180018DC
:103660000018801F800F0000000000000000000014
:1036700000000000000080618061806180618061E5
:10368000806180618063807F803D000000000000D9
:1036900000000000000000000000C06080318031A8
:1036A0008031001B001B001B000E000E00060000F6
:1036B000000000000000000000000000000080DDAD
:1036C00080DD80DD00550055005500770077002231
:1036D00000220000000000000000000000000000C8
:1036E0000000806100330033001E000C000C001E3F
:1036F0000033003380610000000000000000000083
:103700000000000080618061803100330033001BC5
:10371000001B001B000E000E000E001C007C007041
:1037200000000000000000000000C07FC07F80019A
:1037300000030006000C00180030C07FC07F0000AE
:103740000000000080038007000600060006000657
:103750000006000E001C001C000E000600060006FD
:10376000000600068007800300060006000600062B
:103770000006000600060006000600060006000619
:103780000006000600060006000600060038003CA1
:10379000000C000C000C000C000C000E00070007D1
:1037A000000E000C000C000C000C000C003C00385B
:1037B0000000000000000000000000000000803851
:1037C000807F0047000000000000000000000000B3
:1037D00000000000000000000000000000000000E9
:1037E00000000000000000000000000000000000D9
:1037F00000000000000000000000000000000000C9
:103800000000000000000000E003E003E003E0032C
:10381000E003E003E003E003C003C003C001C00114
:10382000C001C001C001000000000000E003E0038F
:10383000E003000000000000000000003C1E3C1EF1
:103840003C1E3C1E3C1E3C1E3C1E000000000000B6
:103850000000000000000000000000000000000068
:103860000000000000000000000000000000000058
:10387000CE01CE03DE039E039C039C07FF3FFF7F28
:103880003807380F780F780F780EFFFFFFFFF01E14
:10389000F01CE01CE03CE03DE039000000000000CE
:1038A00000000000FC03FE0FEE1FE01EE01EE01E05
:1038B000E01EE01FE00FE007F003FC01FE01FE0147
:1038C000FE01FE01FE01FE01FE3DFC3FF00FE001A6
:1038D000E001000000000000033E07F78FE78EE7DD
:1038E0009EE3BCE3B8E7F8E7F0F7E03FC001FF0371
:1038F000FF07F307F30FF31EF33CF338F3787FF081
:103900003FE000000000000000000000E007F80FAA
:10391000780F781F781F781F780FF00FE00F801F47
:10392000C37FC3FBE7F3F7F1F7F0FFF07FF03EF85A
:103930007F7CFF3FEF1F0000000000000000000040
:10394000E003E003E003E003E003C003C001000084
:103950000000000000000000000000000000000067
:103960000000000000000000000000000000000057
:10397000000000003F007C00F001E001C003C00730
:1039800080078007800F000F000F000F000F000F4F
:10399000000F800F80078007C007C003E001F0011F
:1039A0007C003F000F000000007E001FC007C00326
:1039B000E001F001F000F000F800780078007800F5
:1039C000780078007800F800F000F000F001E001E5
:1039D000C003C007001F007E00780000E003C003A2
:1039E000C001CE39FF3F7F3F20037003F807780FF7
:1039F0003C1F38060000000000000000000000002E
:103A000000000000000000000000000000000000B6
:103A1000000000000000000000000000C001C00124
:103A2000C001C001C001C001C001FFFFFFFFC00114
:103A3000C001C001C001C001C001000000000000C1
:103A40000000000000000000000000000000000076
:103A50000000000000000000000000000000000066
:103A6000000000000000E003E003E003E003E001E9
:103A7000E001E001C0018003000000000000000040
:103A80000000000000000000000000000000FE3FF9
:103A9000FE3F0000000000000000000000000000E9
:103AA0000000000000000000000000000000000016
:103AB0000000000000000000000000000000000006
:103AC0000000000000000000000000000000E00313
:103AD000E003E003E003000000000000000000003D
:103AE0000F000F001E001E003C003C007800780014
:103AF000F000F000E001E001C003C0038007800790
:103B0000000F000F001E001E003C003C00780078F3
:103B100000F00000F007F80F7C1F3E3E1E3C1F7CAB
:103B20001F7C0F780F780F780F780F780F780F7849
:103B30001F7C1F7C1E3C3E3E7C1FF80FF0070000E0
:103B40000000000000000000F000F007F03FF03F30
:103B5000F001F001F001F001F001F001F001F001DD
:103B6000F001F001F001F001F001F001F001FF3F80
:103B7000FF3F00000000000000000000E00FF83FE1
:103B80007C3C3C003E003E003E003C003C007C0093
:103B9000F800F001E003C0078007000F001E003EA0
:103BA000003CFE3FFE3F000000000000000000005F
:103BB000F00FF81F7C1C3E003E003E003C003C0025
:103BC000F800F00FF80F7C003E001E001E001E00E3
:103BD0001E003E007C1CF81FE01F000000000000DB
:103BE000000000007800F800F800F801F803F8077A
:103BF000F807780F781E781E783C78787878FFFF81
:103C0000FFFF7800780078007800780078000000E6
:103C10000000000000000000FC1FFC1FFC1F001E35
:103C2000001E001E001E001EE01FF81FFC007C008E
:103C30003E003E001E003E003E003C007C1CF81F83
:103C4000E01F00000000000000000000FC01FE0773
:103C50008E0F001F001E003E003C003CF83DFC3F64
:103C60003E7F1F7E0F3C0F3C0F3C0F3C0F3E1F1E44
:103C70003E1FFC0FF00300000000000000000000E9
:103C8000FF3FFF3FFF3F0F001E001E003C003800BB
:103C90007800F000F000E001E001C003C0038007FD
:103CA000800F800F000F001F001F000000000000A9
:103CB00000000000F807FC0F3E1F1E1E1E3E1E3EA9
:103CC0001E1E3C1FF80FF007F80FFC1E3E3E1F3C67
:103CD0001F7C0F7C0F7C1F3C3E3FFC1FF007000049
:103CE0000000000000000000F007F80F7C1E3E3CC2
:103CF0001E3C1F7C1F7C1F7C1F7C1F3C3F3EFF1F08
:103D0000EF071F001E001E003E003C00F838F03F89
:103D1000E01F0000000000000000000000000000A4
:103D20000000000000000000E003E003E003E00307
:103D30000000000000000000000000000000E003A0
:103D4000E003E003E00300000000000000000000CA
:103D5000000000000000000000000000E003E0039D
:103D6000E003E0030000000000000000000000008D
:103D70000000E003E003E003E003E001E001E00114
:103D8000C0038003000000000000000000000000ED
:103D900003000F003F00FC00F003C00F003F00FED7
:103DA000003FC00FF003FC003F000F0003000000C5
:103DB0000000000000000000000000000000000003
:103DC000000000000000000000000000FFFFFFFFF7
:103DD000000000000000FFFFFFFF000000000000E7
:103DE00000000000000000000000000000000000D3
:103DF000000000000000000000E000F8007E801FCE
:103E0000E007F8017E001F007E00F801E007801F38
:103E1000007E00F800E0000000000000000000004C
:103E2000F01FFC3F3E381F381F381E001E003C00AC
:103E30007800F000E001C003C003C007C007000025
:103E400000000000C007C007C0070000000000001D
:103E500000000000F803FE0F1E1F0F3E7F3CFF789E
:103E6000EF79C773C7F38FF38FF38FF39FF39FF34C
:103E7000FF73FF7BF779003C1C1FFC0FF803000069
:103E80000000000000000000000000000000E0034F
:103E9000E003F007F007F007780F780F7C0E3C1E68
:103EA0003C1E3E3CFE3FFF3F1F780F780FF007F0AF
:103EB00007F000000000000000000000000000000B
:103EC0000000F83FFC3F3E3C1E3C1E3C1E3C3E3C7E
:103ED0007C3CF03FF83F7E3C1F3C1F3C0F3C0F3CBE
:103EE0001F3CFE3FF83F0000000000000000000003
:103EF000000000000000FF01FF07871F003E003C9C
:103F0000007C00780078007800780078007C007CE5
:103F1000003E003F831FFF07FF010000000000007C
:103F200000000000000000000000F07FFC7F7E78B1
:103F30001F781F780F780F780F780F780F780F7829
:103F40000F780F781F781E787E78F87FE07F00006A
:103F50000000000000000000000000000000FF3F23
:103F6000FF3F003E003E003E003E003E003EFE3F62
:103F7000FE3F003E003E003E003E003E003EFF3F52
:103F8000FF3F0000000000000000000000000000F3
:103F90000000FF1FFF1F001E001E001E001E001E4F
:103FA000001EFF1FFF1F001E001E001E001E001E21
:103FB000001E001E001E00000000000000000000A7
:103FC000000000000000FE03FF0F871F003E007C82
:103FD000007C007800F800F87FF87FF80F780F7CFD
:103FE0000F7C0F3E8F1FFF0FFE030000000000003C
:103FF000000000000000000000001F7C1F7C1F7CF0
:104000001F7C1F7C1F7C1F7C1F7CFF7FFF7F1F7C12
:104010001F7C1F7C1F7C1F7C1F7C1F7C1F7C000063
:104020000000000000000000000000000000FF3F52
:10403000FF3FE003E003E003E003E003E003E0030D
:10404000E003E003E003E003E003E003E003FF3FFD
:10405000FF3F000000000000000000000000000022
:104060000000FC1FFC1F7C007C007C007C007C00AE
:104070007C007C007C007C007C007C007800780068
:10408000F838F03FC03F00000000000000000000D2
:104090000000000000001F3C1E3C3C3C783CF03C13
:1040A000E03DE03FC03F803FC03FE03FF03DF03C9F
:1040B000783C7C3C3E3C1F3C0F3C00000000000074
:1040C00000000000000000000000003E003E003E36
:1040D000003E003E003E003E003E003E003E003EF0
:1040E000003E003E003E003E003EFF3FFF3F00001E
:1040F00000000000000000000000000000001FF8A9
:104100001FFC1FFC3FFE3FFE3FFE7FFF77FF77FF58
:10411000F7F7E7F7E7F3E7F3C7F307F007F007F080
:1041200007F0000000000000000000000000000098
:1041300000000F7C0F7C0F7E0F7F0F7F8F7F8F7FA4
:10414000CF7FEF7BEF79FF79FF78FF787F783F783B
:104150003F781F781F78000000000000000000007A
:10416000000000000000F007FC1F3E3E1F7C0F789F
:104170000F780FF80FF80FF80FF80FF80FF80F7807
:104180000F781F7C3E3EFC1FF0070000000000007F
:1041900000000000000000000000FC3FFF3F1F3E49
:1041A0000F3E0F3E0F3E0F3E1F3E3F3EFC3FF03F97
:1041B000003E003E003E003E003E003E003E00004D
:1041C0000000000000000000000000000000F007F8
:1041D000FC1F3E3E1F7C0F780F780FF80FF80FF88A
:1041E0000FF80FF80FF80F780F781F7C3E3EFC1F7A
:1041F000F8077C003F000F000300000000000000F3
:104200000000F03FFC3F7E3C3E3C1E3C1E3C3E3CE2
:104210003C3CFC3CF03FE03FF03DF83C7C3C3E3C0D
:104220001E3C1F3C0F3C000000000000000000008E
:10423000000000000000FC07FE1F0E3E003C003C9A
:10424000003C003EC01FF80FFE037F001F000F0060
:104250000F001F203E3CFC3FF01F0000000000004C
:1042600000000000000000000000FFFFFFFFE0036F
:10427000E003E003E003E003E003E003E003E00326
:10428000E003E003E003E003E003E003E0030000F9
:1042900000000000000000000000000000000F7C93
:1042A0000F7C0F7C0F7C0F7C0F7C0F7C0F7C0F7CB6
:1042B0000F7C0F7C0F7C0F7C1E3C1E3C3E3EFC1F87
:1042C000F0070000000000000000000000000000F7
:1042D000000007F007F007F80F780F7C1E3C1E3C2B
:1042E0001E3E3C1E3C1F781F780FF80FF007F007AA
:1042F000F007E003E0030000000000000000000001
:1043000000000000000003E003F003F007F0E7F313
:10431000E7F3E7F3E773F77BF77FFF7F7F7F7F7F2D
:104320007E7F7E3F3E3E3E3E3E3E0000000000005F
:104330000000000000000000000007F80F7C1E3E97
:104340003E3E3C1FF80FF007E007E003E003F007F4
:10435000F80F7C0F7C1E3E3C1F780F780FF000009A
:10436000000000000000000000000000000007F84E
:1043700007780F7C1E3C1E3E3C1F780FF80FF0079D
:10438000E003E003E003E003E003E003E003E00315
:10439000E00300000000000000000000000000003A
:1043A0000000FF7FFF7F0F001F003E007C00F80031
:1043B000F000E001E003C007800F000F001E003E88
:1043C000007CFF7FFF7F0000000000000000000075
:1043D000FF07800780078007800780078007800726
:1043E0008007800780078007800780078007800795
:1043F0008007800780078007800780078007FF0706
:10440000FF07000000780078003C003C001E001E02
:10441000000F000F80078007C003C003E001E00128
:10442000F000F000780078003C003C001E001E0008
:104430000F000F0007000000F07FF000F000F00018
:10444000F000F000F000F000F000F000F000F000EC
:10445000F000F000F000F000F000F000F000F000DC
:10446000F000F000F000F07FF07F0000C000C0011D
:10447000C001E003E003F007F0077807780F380F7A
:104480003C1E3C1E1E3C1E3C0F380F780778000077
:10449000000000000000000000000000000000001C
:1044A000000000000000000000000000000000000C
:1044B00000000000000000000000000000000000FC
:1044C00000000000000000000000FFFFFFFF0000F0
:1044D00000000000F00000000000000000000000EC
:1044E00000000000000000000000000000000000CC
:1044F00000000000000000000000000000000000BC
:1045000000000000000000000000000000000000AB
:1045100000000000F80FFC3F7C3C3E003E003E00E7
:10452000FE07FE1F3E3E3E7C3E783E7C7E7CFF3F8B
:10453000CF1F00000000000000000000003C003C15
:10454000003C003C003C003CF83DFE3F3E3F1F3E2F
:104550000F3C0F3C0F3C0F3C0F3C0F3C1F3C1E3CE4
:104560003E3FFC3FF03B0000000000000000000068
:10457000000000000000000000000000FE03FF0F2C
:10458000871F003E003E003C007C007C007C003C1D
:10459000003E003E871FFF0FFE03000000000000EA
:1045A000000000001F001F001F001F001F001F0051
:1045B000FF07FF1F3F3E1F3C1F7C1F7C1F7C1F7897
:1045C0001F781F7C1F7C3F3C7F3EFF1FDF0F0000DA
:1045D00000000000000000000000000000000000DB
:1045E00000000000F803FC0F3E1F1E3E1F3C1F7C16
:1045F000FF7FFF7F007C007C003C003E071FFF0F19
:10460000FE0300000000000000000000FF01E103C5
:10461000C003C007C007C007FF7FFF7FC007C007F8
:10462000C007C007C007C007C007C007C007C00752
:10463000C007C007C0070000000000000000000025
:10464000000000000000000000000000EF07FF1F56
:104650007F3E1F3C1F7C1F7C1F781F781F781F7CAC
:104660001F7C3F3C7F3EFF1FDF0F1E001E001E0011
:104670007C38F83F003C003C003C003C003C003CE7
:10468000FC3DFE3F9E3F1F3F1F3E1F3C1F3C1F3C0B
:104690001F3C1F3C1F3C1F3C1F3C1F3C1F3C00009D
:1046A0000000000000000000F001F0010000000028
:1046B00000000000E07FE07FE001E001E001E001B8
:1046C000E001E001E001E001E001E001E001E001E2
:1046D000E00100000000000000000000F800F80009
:1046E0000000000000000000F83FF83FF800F8006C
:1046F000F800F800F800F800F800F800F800F800FA
:10470000F800F800F800F800F800F000F071E07F21
:10471000003C003C003C003C003C003C1F3C3E3C5C
:104720007C3CF83CF03DE03DC03FC03FE03FF03D09
:10473000F83C7C3C3E3C1F3C1F3C0000000000005D
:1047400000000000F07FF001F001F001F001F00145
:10475000F001F001F001F001F001F001F001F001D1
:10476000F001F001F001F001F001F001F0010000B2
:104770000000000000000000000000000000000039
:10478000000000009EF7FFFFFFFFFFFFE7FBE7F9D8
:10479000C7F1C7F1C7F1C7F1C7F1C7F1C7F1C7F159
:1047A000C7F1000000000000000000000000000051
:1047B0000000000000000000FC3DFE3F9E3F1F3F48
:1047C0001F3E1F3C1F3C1F3C1F3C1F3C1F3C1F3C0F
:1047D0001F3C1F3C1F3C00000000000000000000C8
:1047E000000000000000000000000000F007FC1FB7
:1047F0003E3E1F3C1F7C0F780F780F780F780F78A4
:104800001F7C1F3C3E3EFC1FF00700000000000024
:104810000000000000000000000000000000000098
:10482000F83DFE3F3E3F1F3E0F3C0F3C0F3C0F3C10
:104830000F3C0F3C1F3C1E3E3E3FFC3FF83F003C00
:10484000003C003C003C003C000000000000000078
:1048500000000000EE07FE1F7E3E1E3C1E7C1E7800
:104860001E781E781E781E781E7C3E7C7E3EFE1FC3
:10487000DE0F1E001E001E001E001E0000000000B5
:1048800000000000000000007F1FFF1FE71FC71F80
:10489000871F001F001F001F001F001F001F001F99
:1048A000001F001F001F00000000000000000000AB
:1048B000000000000000000000000000FC07FE1FD8
:1048C0000E1E003E003E003FE01FFC07FE003E00C3
:1048D0001E001E003E3CFC3FF01F000000000000D8
:1048E0000000000000000000000080078007800733
:1048F000FF7FFF7F80078007800780078007800792
:104900008007800780078007C007FF03FF010000C2
:104910000000000000000000000000000000000097
:10492000000000001E3C1E3C1E3C1E3C1E3C1E3C6B
:104930001E3C1E3C1E3C1E3C3E3C7E3CFE3EFE1F82
:10494000DE0F00000000000000000000000000007A
:10495000000000000000000007F00F780F781E3CF8
:104960001E3C1E3E3C1E3C1E780F780FF00FF007D9
:10497000F007E003E003000000000000000000007A
:1049800000000000000000000000000003F0E3F160
:10499000E3F3E7F3F7F3F7F3F77F777F7F7F7F7F2B
:1049A0007F7F3E3E3E3E3E3E3E3E00000000000019
:1049B00000000000000000000000000000000000F7
:1049C0000F7C1E3E3C3E3C1FF80FF007F007E00353
:1049D000F007F807F80F7C1E3E3E1F3C1F780000D2
:1049E00000000000000000000000000000000000C7
:1049F0000000000007F80F780F7C1E3C1E3C3C1E98
:104A00003C1E3C1F780FF80FF007F007E003E003AF
:104A1000C003C003C0038007800F007F00000000B8
:104A20000000000000000000FF3FFF3F1F003E00AD
:104A30007C00F800F001E003C007800F001F001E9B
:104A4000003CFF7FFF7F000000000000000000002E
:104A5000FE01E003C003C003C003C003E001E001A6
:104A6000E001C001C003803F803FC003C001E001FE
:104A7000E001E001C003C003C003C003E003FE0186
:104A80007E000000C001C001C001C001C001C00122
:104A9000C001C001C001C001C001C001C001C0010E
:104AA000C001C001C001C001C001C001C001C001FE
:104AB000C001C001C0010000C03FE003E001E0010F
:104AC000E001E001C001C003C003C001E001FE003D
:104AD000FE00E001C001C003C003C001E001E0012D
:104AE000E001E001E003C03F003F000000000000E3
:104AF00000000000000000000000000000000000B6
:104B00000000073FC77FE773FFF17EF00000000061
:104B10000000000000000000000000000000000095
:104B20003031323334353637383961626364656623
:104B30006768696A6B6C6D6E6F707172737475768D
:084B40007778797A000000008B
:104B480000A24A0400000000000000000102030463
:104B5800060708090000000001020304010203041B
:104B68000607080902040608070A00000C230008C3
:104B78000B120000782A0008101A0000D437000829
:0400000508000000EF
:00000001FF
